:020000040800F2
:1000000008090020C90100082F100008150F00087A
:100010002D100008CF020008C312000800000000E5
:100020000000000000000000000000003310000885
:10003000D10200080000000031100008351000084F
:10004000E3010008E3010008E3010008E301000800
:10005000E3010008E3010008E3010008E3010008F0
:10006000E3010008E3010008E3010008E3010008E0
:10007000E3010008E3010008E3010008E3010008D0
:10008000E3010008E3010008E3010008E3010008C0
:10009000E3010008E3010008E3010008E3010008B0
:1000A000E3010008E3010008E3010008E3010008A0
:1000B000E3010008E3010008E3010008E301000890
:1000C000E3010008E3010008E3010008E301000880
:1000D000E3010008E3010008E3010008E301000870
:1000E000E3010008E3010008E301000800F002F862
:1000F00000F05AF80AA090E8000C82448344AAF168
:100100000107DA4501D100F04FF8AFF2090EBAE865
:100110000F0013F0010F18BFFB1A43F0010318473B
:100120006C1900008C1900000A444FF0000C10F804
:10013000013B13F0070408BF10F8014B1D1108BF65
:1001400010F8015B641E05D010F8016B641E01F805
:10015000016BF9D113F0080F1EBF10F8014BAD1C55
:100160000C1B09D16D1E58BF01F801CBFAD505E073
:1001700014F8016B01F8016B6D1EF9D59142D6D3CD
:10018000704700000023002400250026103A28BFF5
:1001900078C1FBD8520728BF30C148BF0B607047F9
:1001A0001FB51FBD10B510BD00F058F81146FFF780
:1001B000F7FF01F073F900F076F803B4FFF7F2FFF0
:1001C00003BC00F07DF8000009488047094800475B
:1001D000FEE7FEE7FEE7FEE7FEE7FEE7FEE7FEE7F7
:1001E000FEE7FEE704480549054A064B7047000054
:1001F00089100008ED00000808030020080900200D
:1002000008050020080500204FF0000200B5134645
:1002100094469646203922BFA0E80C50A0E80C5026
:10022000B1F12001BFF4F7AF090728BFA0E80C50D7
:1002300048BF0CC05DF804EB890028BF40F8042BD0
:1002400008BF704748BF20F8022B11F0804F18BF3D
:1002500000F8012B7047704770477047754600F0F3
:100260002BF8AE4605006946534620F00700854648
:1002700018B020B5FFF7B6FFBDE820404FF00006EC
:100280004FF000074FF000084FF0000B21F007017E
:10029000AC46ACE8C009ACE8C009ACE8C009ACE8C1
:1002A000C0098D46704710B50446AFF30080204664
:1002B000BDE81040FFF781BF00487047A80200204A
:1002C00001491820ABBEFEE7260002007047FEE79A
:1002D000704700002DE9F84FDFF8B8910024A9F12C
:1002E000040B23460F2709F1040AABF1040EC9E001
:1002F0000125A5402A40AA427DD1674ED1F804C00D
:10030000ACEB0608B44532D014DCBCF1030F3AD094
:1003100009DCBCF1000F2AD0BCF1010F1CD0BCF1EC
:10032000020F31D11DE0BCF1110F17D0BCF1120F3B
:100330002AD119E0B8F5881F19D006DCB8F5803F3E
:1003400015D0B8F5801F1FD111E0B8F5001F0ED0F1
:10035000B8F5041F18D10AE0CB6815E0CB681B1D67
:1003600012E0CB6808330FE0CB680C330CE08B68ED
:100370002BB1012B4FF0080303D0456104E00423A7
:1003800002E0056100E00023FF2A01D8064601E0F3
:1003900000F104064FEA840501D9A5F12005D6F83D
:1003A000008007FA05FC28EA0C0803FA05F548EA7C
:1003B0000508C6F800804D68ED0062D5374DAE697E
:1003C00046F00106AE61AD6924F0030605F00105B3
:1003D0000095334D06EB050CDCF80850A607360FE8
:1003E00007FA06F825EA0805DFF8B880404503D18A
:1003F0004FF0000817E044E0DFF8AC80404502D140
:100400004FF001080FE0DFF8A480404502D14FF023
:10041000020808E0DFF89880404502D14FF0030859
:1004200001E04FF0040808FA06F848EA0508CCF89D
:1004300008804D68D9F80060ED024D4601D516439D
:1004400000E096432E604D68DAF80060AD02554634
:1004500001D5164300E096432E604D68DBF800603E
:10046000AD035D4601D5164300E096432E604D680E
:10047000DEF80060ED03754601D5164300E09643B3
:100480002E60641C0D682A46E5407FF431AFBDE85C
:10049000F88F000008040140000011100010024015
:1004A0000000014000080140000C01400010014024
:1004B000001401400AB1016170470904FBE7000024
:1004C00001488068704700000802002002488168E7
:1004D000027811448160704708020020074810B577
:1004E000016841F010010160032000F067F80F205F
:1004F00000F006F800F024F8002010BD00200240B3
:1005000070B50D4D04464FF47A712878B1FBF0F0C8
:100510000A490968B1FBF0F000F0AEFA48B9102CB6
:1005200007D200222146501E00F028F800206C60FF
:1005300070BD012070BD00000802002014020020E0
:100540000C4808B5816941F001018161816901F0C0
:1005500001010091C16941F08051C161C06900F0A1
:10056000805000900448416821F0E06141F0007142
:10057000416008BD0010024000000140F0B40E4B85
:100580001B680C46C3F30223C3F10705042D00D9F1
:100590000425191D072901D2002300E0DB1E0126D6
:1005A00006FA05F1491E214099409E40761E1640EC
:1005B0003143F0BC00F086BE0CED00E0064900F0CF
:1005C000070208684FF6FF03184040EA0220034A7A
:1005D00010430860704700000CED00E00000FA05D1
:1005E0002DE9F0470F46050061D0434E306800F01A
:1005F0000700B84209D2306820F007003843306065
:10060000306800F00700B84251D128683B4C8107A0
:1006100012D5400703D5606840F4E0606060287838
:10062000000703D5606840F4605060606068A968A6
:1006300020F0F000084360602878C00728D0686880
:10064000012810D02168022810D0890700292EDA4D
:10065000616821F0030101436160FFF731FF8046CB
:1006600041F288390DE021688903EFE78901EDE760
:10067000FFF726FFA0EB0801494502D90320BDE89A
:10068000F0876068696800F00C00B0EB810FEFD173
:10069000306800F00700B8420BD9306820F007003E
:1006A00038433060306800F00700B84201D00120C4
:1006B000E5E72878400705D56068E96820F4E06040
:1006C000084360602878000706D56068296920F42F
:1006D000605040EAC100606000F018F86168084AA4
:1006E000C1F30311515CC840064908600648006820
:1006F000FFF706FF0020C2E7002002400010024082
:100700007A1A0008140200200C0200200E4A5168D8
:100710000E4801F00C03042B11D0082B0FD10C480C
:10072000C1F38343C903C05C0AD55168084AC1F3C9
:100730004041921E515C054A5043B0FBF1F07047B6
:1007400004494843704700000010024000127A003C
:100750006A1A000800093D002DE9F84F040070D026
:100760002078C04DC00749D06868C0F381000128D7
:1007700007D06868C0F38100022809D16868C00307
:1007800006D52868800339D560680028E7D035E0B1
:100790006068B0F5803F0BD010B1B0F5A02F11D03C
:1007A000286820F480302860286820F4802002E047
:1007B000286840F480302860606890B1FFF780FEC0
:1007C00006460AE0286840F480202860F0E700BF71
:1007D000FFF776FE801B642873D828688003F7D55E
:1007E0000CE0FFF76DFE064605E000BFFFF768FE70
:1007F000801B6428F0D828688003F7D420789A4EAC
:1008000080074FF001094FF0000839D5686810F0F3
:100810000C0F07D06868C0F38100022809D168680E
:10082000C00306D42868800714D52069012808D1A0
:1008300010E02069B0B1C6F80090FFF741FE07460E
:1008400005E00AE1FFF73CFEC01B0228C4D8286877
:100850008007F7D52868616920F0F80040EAC100F8
:1008600028600DE0C6F80080FFF72AFE074604E086
:10087000FFF726FEC01B022823D828688007F7D47C
:10088000207800072CD57948A169D9B1C0F800902B
:10089000FFF716FE074604E0FFF712FEC01B022812
:1008A0000FD8686A8007F7D571484FF4FA5100688D
:1008B000B0FBF1F0009000BF0098411E0091FAD209
:1008C0000EE080E0C0F80080FFF7FAFD074604E084
:1008D000FFF7F6FDC01B022875D8686A8007F7D4B9
:1008E0002078400760D5E8690027C00008D4E8698F
:1008F00040F08050E861E869012700F080500090E6
:100900005C480168C90513D40168834641F48071CD
:100910000160FFF7D5FD824606E000BFFFF7D0FD7E
:10092000A0EB0A0064284ED8DBF80000C005F5D51E
:10093000E06801280AD008B1052813D0286A20F001
:1009400001002862286A20F0040002E0286A40F0D2
:1009500001002862E06841F2883B98B1FFF7B0FDE2
:1009600082460BE0286A40F004002862EEE700BFF0
:10097000FFF7A6FDA0EB0A0159455AD8286A80075F
:10098000F6D50CE0FFF79CFD824605E0FFF798FDE9
:10099000A0EB0A0159454CD8286A8007F6D41FB14C
:1009A000E86920F08050E861E06988B36968C1F3C4
:1009B0008101022944D00228C6F8608004D0FFF7E4
:1009C0007FFD044638E034E0FFF77AFD074604E097
:1009D000FFF776FDC01B02282BD828688001F7D4CA
:1009E000206AB0F5803F05D16868A16820F4003026
:1009F00008436860D4E908010843696821F4741168
:100A000008436860C6F86090FFF75AFD044606E0A8
:100A100025E000BFFFF754FD001B022809D8286815
:100A20008001F7D51BE000BFFFF74AFD001B02283D
:100A300002D90320BDE8F88F28688001F4D40EE0C5
:100A40000128F7D06868226A00F48031914204D10D
:100A5000616A00F47010884201D00120EAE70020AA
:100A6000E8E70000001002400000424280044242D9
:100A7000140200200070004010B5401EB0F1807FCD
:100A800001D3012010BD4FF0E02460610F216017F9
:100A900000F018FC0020A06107202061002010BD9C
:100AA00070B590F83C20012A26D0012480F83C4003
:100AB000022280F83D2003685A689D6822F0700683
:100AC0000A6832435A600D4B02689A4208D0B2F16C
:100AD000804F05D00A4B9A4202D00A4B9A4204D169
:100AE000496825F080031943916080F83D4000215A
:100AF00080F83C10084670BD022070BD002C0140FB
:100B0000000400400008004010B5040003D094F831
:100B10003D0010B107E0012010BD002084F83C002A
:100B2000204600F01FF8022084F83D00211D2068B7
:100B300000F0ACFA012084F8460084F83E0084F806
:100B40003F0084F8400084F8410084F8420084F8B3
:100B5000430084F8440084F8450084F83D000020F8
:100B600010BD000008B50C4A01680C48914207D13D
:100B7000816941F400618161806900F4006009E0ED
:100B8000B1F1804F07D1C16941F00101C161C06974
:100B900000F00100009008BD002C01400010024050
:100BA00090F83D10012901D001207047022180F802
:100BB0003D1000680B49884208D0B0F1804F05D045
:100BC0000949884202D00949884204D1816801F06C
:100BD0000701062903D0016841F0010101600020EE
:100BE00070470000002C0140000400400008004055
:100BF00070B5044690F83C000025012817D0012666
:100C000084F83C60022084F83D002068826822F06D
:100C1000770222F47F4282600868502838D00DDCC9
:100C200020284FD005DC90B3102811D14AE00220D3
:100C300070BD302846D040280AD13BE060282FD034
:100C400070280DD0B0F5805F03D0B0F5005F12D0F2
:100C5000012584F83D60002084F83C00284670BDE2
:100C6000CB68D1E90121206800F053FA206881683F
:100C700041F0770109E0CB68D1E90121206800F05B
:100C800048FA2068816841F480418160E1E719E019
:100C9000CA684968206800F0F1FA5021206806E02F
:100CA000CA684968206800F0FAFA6021206800F0FC
:100CB0003AFACEE7CA684968206800F0DFFA4021B6
:100CC0002068F4E7226801461046F0E710B586B0C8
:100CD000002100910191029103910068B0F1804FD1
:100CE0002BD11748816941F004018161816901F0CC
:100CF00004010491816941F0080181618069022445
:100D000000F0080004904FF40040CDE9000469466B
:100D10000C480394FFF7DEFA0820CDE90004694689
:100D200009480394FFF7D6FA0848416821F4407156
:100D300041F0E06141F48071416006B010BD0000F7
:100D40000010024000080140000C0140000001407A
:100D500070B5044690F83C0000260D4601280FD0DF
:100D6000012084F83C006AB1042A1DD0082A2FD043
:100D70000C2A3FD00126002084F83C00304670BD8C
:100D8000022070BD206800F0D7F92068816941F029
:100D9000080181612068816921F004018161206876
:100DA00081692A69114311E0206800F0EDF920689B
:100DB000816941F4006181612068816921F4806169
:100DC0008161206881692A6941EA02218161D2E753
:100DD000206800F005FA2068C16941F00801C1618E
:100DE0002068C16921F00401C1612068C1692A69D4
:100DF000114311E0206800F01FFA2068C16941F436
:100E00000061C1612068C16921F48061C16120680D
:100E1000C1692A6941EA0221C161ACE710B5040049
:100E200003D094F83D0010B107E0012010BD002070
:100E300084F83C00204600F01EF8022084F83D00B3
:100E4000211D206800F022F9012084F8460084F872
:100E50003E0084F83F0084F8400084F8410084F8A4
:100E6000420084F8430084F8440084F8450084F884
:100E70003D00002010BD704710B50446022249B164
:100E800004290ED0082913D094F84100012816D067
:100E9000012010BD94F83E000128F9D184F83E20CD
:100EA0000FE094F83F000128F2D184F83F2008E0D9
:100EB00094F840000128EBD184F8402001E084F848
:100EC00041200122206800F017F90F49206888426C
:100ED00003D1426C42F4004242642068884208D048
:100EE000B0F1804F05D00949884202D008498842B4
:100EF00004D1816801F00701062903D0016841F09F
:100F000001010160002010BD002C014000040040E0
:100F100000080040FEE7000010B586B00024174826
:100F2000009401940294039404941349059401607D
:100F30000721C0E901144FF6FF71C0E903144461B1
:100F40008461FFF7E1FD08B172B6FEE74FF480500F
:100F5000009069460948FFF74BFE08B172B6FEE7FC
:100F6000049404A905480594FFF79AFD002801D0D0
:100F700072B6FEE706B010BD002C0140180200203A
:100F800010B58EB000240794089409940A940B9429
:100F90001C2168460C94FFF737F923484FF0804135
:100FA00001603F21C0E9011440F2E731C0E90314B8
:100FB0008461FFF7A9FD08B172B6FEE74FF48050D7
:100FC000079007A91848FFF713FE08B172B6FEE7AD
:100FD0001548FFF723FF08B172B6FEE70B940BA983
:100FE00011480C94FFF75CFD08B172B6FEE7602073
:100FF000009040F2F310CDE90104002269460A484E
:101000000494FFF7A5FE08B172B6FEE70422694614
:101010000548FFF79DFE08B172B6FEE70248FFF7EC
:1010200055FE0EB010BD000060020020FEE7FEE796
:1010300070477047FFF74ABA10B590B0282168464C
:10104000FFF7E2F814210AA8FFF7DEF8022000906B
:101050000120049010200024059007946846FFF7B3
:101060007BFB08B172B6FEE70F20CDE90A040C94B1
:101070000D9400210AA80E94FFF7B2FA002801D0BF
:1010800072B6FEE710B010BD70470000F0B5026800
:10109000164B174C174D4FF08047984205D0B84279
:1010A00003D0A04201D0A84203D122F070064A68C2
:1010B0003243984205D0B84203D0A04201D0A842A2
:1010C00003D122F44074CA6822434C6922F08002A2
:1010D000224302608A68C2620A688262984201D131
:1010E0000969016301214161F0BD0000002C01404C
:1010F000000400400008004010B501F01F0301216A
:10110000046A99408C430462016A9A401143016267
:1011100010BD10B5846842EA032224F47F440A43D8
:101120002243826010BD826822F070020A4342F0BE
:10113000070181607047000030B5036A026A22F03F
:10114000010202624268846924F073050C682C4332
:1011500023F002058B682B430A4DA8420BD123F0E4
:101160000805CB6822F440722B434D6923F0040339
:1011700015438A692A434260846149684163036276
:1011800030BD0000002C014030B5026A036A23F034
:1011900010030362436884690D6824F4E64444EA5A
:1011A00005248D6822F0200242EA05120B4DA84268
:1011B0000ED1CD6822F0800242EA05124D6923F477
:1011C000406343EA85038D6922F0400243EA8503C8
:1011D0004360846149688163026230BD002C014034
:1011E00030B5036A026A22F4807202624268C469FE
:1011F00023F4007324F073050C682C438D6843EAD4
:1012000005230C4DA8420ED1CD6823F4006343EAB8
:1012100005234D6922F4405242EA05128D6923F4F8
:10122000806342EA05124260C4614968C163036297
:1012300030BD0000002C014030B5046A026A22F47F
:10124000805202624268C3690D6823F4E64343EAB0
:1012500005238D6824F4005444EA0534064DA84261
:1012600004D14D6922F4804242EA85124260C36192
:1012700049680164046230BD002C014010B5036A66
:10128000046A24F001040462846924F0F00444EA4E
:10129000021423F00A020A438461026210BD10B5F1
:1012A000036A046A24F010040462846923F0A00332
:1012B00024F4704444EA023243EA0111826101627B
:1012C00010BDFEE70907090E002804DB00F1E0204D
:1012D00080F80014704700F00F0000F1E02080F863
:1012E000141D7047044900220B685A6209684A6A53
:1012F0008242FCD3704700001802002010B50B4C4E
:10130000012211462046FFF7D5F80022022120468F
:10131000FFF7D0F8012204212046FFF7CBF8204642
:101320000022BDE810400821FFF7C4B800080140C2
:1013300010B50B4C012211462046FFF7BBF80022E6
:1013400002212046FFF7B6F8002204212046FFF7CD
:10135000B1F820460122BDE810400821FFF7AAB8E5
:101360000008014010B50B4C002201212046FFF778
:10137000A1F8012202212046FFF79CF80122042156
:101380002046FFF797F820460022BDE810400821CC
:10139000FFF790B80008014010B50B4C0022012166
:1013A0002046FFF787F8012202212046FFF782F846
:1013B000002204212046FFF77DF820460122BDE8E7
:1013C00010400821FFF776B80008014010B50B4C1B
:1013D000002201212046FFF76DF80122022120465C
:1013E000FFF768F8002204212046FFF763F8204643
:1013F0000122BDE810400821FFF75CB80008014059
:1014000010B50B4C002201212046FFF753F80122B2
:1014100002212046FFF74EF8012204212046FFF763
:1014200049F820460022BDE810400821FFF742B8E5
:101430000008014010B50B4C012211462046FFF771
:1014400039F8002202212046FFF734F80022042157
:101450002046FFF72FF820460122BDE81040082162
:10146000FFF728B80008014010B50B4C01221146C7
:101470002046FFF71FF8002202212046FFF71AF846
:10148000012204212046FFF715F820460022BDE87E
:1014900010400821FFF70EB80008014086B0FFF7A2
:1014A0001DF8FFF7C9FD00248948009401940294B7
:1014B0000394816941F004018161816901F00401B3
:1014C0000491816941F0080181618069814D00F0DA
:1014D0000800049000220F212846FEF7EBFF0F20A2
:1014E00000900120CDE901040220039069462846BE
:1014F000FEF7F0FEFFF710FDFFF742FD7648FFF71D
:101500004FFB754800214830FFF7B6FC72480421B4
:101510004830FFF7B1FC704E40F2E7304836316892
:101520004863306884636D4FDFF8B481A7F1080524
:10153000C8E02878A8B9202C01D2FFF7F9FEA4F161
:101540002000202801D2FFF727FFA4F14000202827
:1015500001D2FFF755FFA4F16000202801D2FFF768
:1015600083FF2878012815D1202C01D2FFF7C6FE71
:10157000A4F12000202801D2FFF7F4FEA4F14000DE
:10158000202801D2FFF722FFA4F16000202801D219
:10159000FFF750FF102C0DD2688800F085F957F83E
:1015A000241000F095F9414600F09CF800F05CF939
:1015B00031688863A4F1100010280DD2688800F00B
:1015C00073F957F8241000F083F9414600F08AF8C7
:1015D00000F04AF931684863A4F1200010280DD2C8
:1015E000688800F061F957F8241000F071F941465D
:1015F00000F078F800F038F931684863A4F1300061
:1016000010280DD2688800F04FF957F8241000F028
:101610005FF9414600F066F800F026F9316888630A
:10162000A4F1400010280DD2688800F03DF957F869
:10163000241000F04DF9414600F054F800F014F980
:1016400031688863A4F1500010280DD2688800F03A
:101650002BF957F8241000F03BF9414600F042F80E
:1016600000F002F931684863A4F1600010280DD23F
:10167000688800F019F957F8241000F029F941465C
:1016800000F030F800F0F0F831684863A4F1700021
:1016900010280DD2688800F007F957F8241000F0E0
:1016A00017F9414600F01EF800F0DEF83168886353
:1016B000802C03D36868002480386860C820FFF756
:1016C00011FE641C68688442FFF433AFFEE700003B
:1016D000001002400008014018020020080000200D
:1016E0000000C8424FF47F0C1CEAD0121EBF1CEA57
:1016F000D11392EA0C0F93EA0C0F00F0858090EA68
:10170000010F48BF42F4807240F4000C41F4000025
:101710002CF07F4120F07F4000B58142A2EB030214
:101720000FF2081CACEB504EC0F100009EF800E038
:101730004FEA4E0E00FB0EFC38BF49004FEA2C1C4E
:1017400002F5FA020CFB0EF34FEACE1E4FEA112C03
:101750004FEAC1210EEB635E42EB22420EFB0CFC12
:101760004FEA1C5300FB03114FEA112C4FEA0131E1
:101770000EFB0CFC4FEADC4C00FB0C11C14228BFF5
:1017800009184CEB03335DF804EB10EB410143EB1C
:10179000C250B2F57C0F38BF704729D512F0F00F58
:1017A0001CBF00F1C04000F0004070470081828300
:1017B0008485868788898B8C8D8E8F919293959660
:1017C00097999A9C9D9FA0A2A3A5A7A8AAACAEB0EA
:1017D000B2B3B5B7B9BCBEC0C2C5C7C9CCCED1D4EF
:1017E000D7D9DCDFE2E6E9ECF0F3F7FAFE0000001F
:1017F0004FEA400C0CF1807CBCF17E4F28BF704753
:10180000B0F1C04000F02BB990EA010F0CEAD113FF
:1018100048BF42F48072624538BF634507D213F473
:101820007F0F16D080EA010000F00040704710B52D
:1018300000F0CFF8097EFC3E00F005B880EA010018
:1018400000F00040704780EA010000F0004000F026
:1018500006B912F47F0F04BF0248704780EA010006
:1018600000F0FDB80000C07FC10DD1F19E0206DB83
:101870004FEA002343F0004323FA02F0704700428E
:1018800007D54FEA4001B1F1FE4F02D24FF0000000
:10189000704710B500F09DF84992248000207047F1
:1018A0006FEA200070470000B0FA80F310FA03F2EC
:1018B000C3F19D030AD0D90501EB1220530638BFAE
:1018C000704700F1010008BF20F0010070470000E0
:1018D0004FF47F0C1CEAD0121EBF1CEAD11392EA0F
:1018E0000C0F93EA0C0F00F0478090EA010F48BFFD
:1018F00042F480724FF0004C4CEA00204CEA012187
:1019000002EB0302A0FB0113A2F50002002918BF9D
:1019100043F001035B0028BF4FEA330342EB22424E
:101920005FEA132C4CEBC2502EBFBCEB436FB2F5F9
:101930007C0F70474FEA036CBCF1004F08BF20F0EA
:101940000100B2F57C0F38BF70470BD582F0FF0263
:1019500012F5803FC8BF704700F1C040D8BF00F00B
:101960000040704700F5000C5FEA4C0C48BF704720
:10197000B0F1C04000F073B890EA010F0CEAD11347
:1019800048BF42F48072624538BF634504D280EAA2
:10199000010000F00040704710B500F01AF800BFD9
:1019A0008900013E00F007B800F009B85FEA410C79
:1019B0005FEA1C6C08D080EA010000F050B85FEAD2
:1019C000400C5FEA1C6CF6D14FF00040A0F580009F
:1019D00070470EF1020E2EF0030E5EF8044B244207
:1019E00004D44FEA4102B2F17F4F11D84FEA4003CD
:1019F000B3F17F4F0CD80ED14FEAD07CB2F17F4FBC
:101A00000CEB4C0C0CF1020C08BF4CEBD17C04E04D
:101A10004FF0080C01E04FEAD17C0CEB4C0324FAA8
:101A200003F404F00704B4F1040C06D20EEB840CAA
:101A3000BDE810404CF0010C6047DFE80CF00708EF
:101A400002024FF00040A0F5800010BD08464200A1
:101A500018BFD2F1807288BF00F0004010BDFF2196
:101A600041EAD050C0057047010202030405060791
:101A700008090A0B0C0D0E0F1010000000000000EA
:101A8000000001020304060708090000AC1A000860
:101A9000000000201802000028010008101B0008A8
:101AA00018020020F006000084010008120113E76C
:101AB00003221925CDCC1C411AA0041AE8042318CE
:101AC000421A3C041A60041A7C041A8E041A9A04FE
:101AD0001AA6041AB0041EBA423333BF081AC4044B
:101AE0001AC7045AC8085AC4185ABA2829302938BB
:101AF0002940294829502958296029684BA0417854
:101B000009FD80098180320182101324F400000055
:04000005080000ED02
:00000001FF
