:020000040800F2
:10000000C0090020910100081B1400081714000803
:1000100019140008C50400080D17000800000000AE
:100020000000000000000000000000001F14000895
:10003000F9040008000000001D1400082114000845
:10004000AB010008AB010008AB010008AB010008E0
:10005000AB010008AB010008AB010008AB010008D0
:10006000AB010008AB010008AB010008AB010008C0
:10007000AB010008AB010008AB010008AB010008B0
:10008000AB010008AB010008AB010008AB010008A0
:10009000AB010008AB010008AB010008AB01000890
:1000A000AB010008AB010008AB010008AB01000880
:1000B000AB010008AB010008AB010008AB01000870
:1000C000AB010008AB010008AB010008AB01000860
:1000D000AB010008AB01000801170008AB010008E4
:1000E000AB010008AB010008AB01000800F002F80A
:1000F00000F03EF80AA090E8000C82448344AAF184
:100100000107DA4501D100F033F8AFF2090EBAE881
:100110000F0013F0010F18BFFB1A43F0010318473B
:10012000F016000010170000103A24BF78C878C1FC
:10013000FAD8520724BF30C830C144BF04680C60ED
:10014000704700000023002400250026103A28BF35
:1001500078C1FBD8520728BF30C148BF0B60704739
:100160001FB59DE8030000F0CFF81FBD10B510BD0E
:1001700000F026F91146FFF7F3FF01F0D9FA00F07D
:1001800044F903B4FFF7F2FF03BC00F075F9000077
:100190000948804709480047FEE7FEE7FEE7FEE71B
:1001A000FEE7FEE7FEE7FEE7FEE7FEE70448054957
:1001B000054A064B7047000075140008ED00000862
:1001C000C0030020C0090020C0050020C005002099
:1001D00070B5064600F07CF8056806F10B0020F0CB
:1001E0000704B4429CBF002070BD2B466A68BAB1B8
:1001F0001068A04210D304F1080188423CBF506847
:10020000586007D35168101941601168091B0160DB
:1002100058601460101D70BD13465268002AE7D163
:100220002146284600F05CF80028DED170BD70B58C
:100230000446051F00F04CF80068002C14BF446809
:1002400070BD002C18BFAC423CBF20466468F8D398
:1002500001680A18AA4218BF456003D12A680546FA
:100260001144016028684119A1421CBF6C6070BD37
:100270006168696021680844286070BD4FF0000221
:1002800000B5134694469646203922BFA0E80C508C
:10029000A0E80C50B1F12001BFF4F7AF090728BF67
:1002A000A0E80C5048BF0CC05DF804EB890028BFE3
:1002B00040F8042B08BF704748BF20F8022B11F00C
:1002C000804F18BF00F8012B704770477047704788
:1002D00000487047640300207047704770477047BC
:1002E00038B504460A4600206946AFF3008000286E
:1002F00008BF38BD02460099204600F03FF80120B3
:1003000038BD012000F054B8F8B5AFF300800546C1
:1003100000200C46102000BF0646A819A0420DD9A7
:10032000324669460020AFF30080070008BF00F0A6
:100330003FF80098A04218BF0546C419FFF7C8FF50
:1003400005600746F01D20F007004619284600F01A
:100350000AF8B44208BFF8BDA21B31463868BDE8B0
:10036000F84000F00BB800210160C0E901107047AF
:1003700010207047004870475C0300200346406827
:100380008C46002818BF88423CBF03464068F8D31B
:1003900018681844884207D00CF1030020F00700C9
:1003A000001D411A521A0146081D0A60FFF73FBF9F
:1003B00010B500F039F8BDE8104000F02FB87047D4
:1003C0007546FFF7D7FFAE4605006946534620F055
:1003D0000700854618B020B5FFF7E8FEBDE82040CD
:1003E0004FF000064FF000074FF000084FF0000BF1
:1003F00021F00701AC46ACE8C009ACE8C009ACE8A4
:10040000C009ACE8C0098D46704710B50446AFF38B
:1004100000802046BDE81040FFF7B3BE002801D0A1
:1004200000F02AB87047000010B5012805D000215F
:1004300003A000F027F8012010BD09A1F8E7000093
:1004400053494752544D454D3A204F7574206F66BD
:100450002068656170206D656D6F72790000000025
:100460003A2048656170206D656D6F727920636F09
:10047000727275707465640001491820ABBEFEE7A6
:100480002600020070B505460C460A2000E06D1CEF
:1004900000F011F835B128780028F8D102E0641C8A
:1004A00000F009F814B120780028F8D1BDE87040B8
:1004B0000A20AFF3008008B569468DF800000320DC
:1004C000ABBE08BDFEE770B504464FF6FF700022D4
:1004D0004AF201050DE08B5C58400823C6074FEA3D
:1004E000500000D068405B1E13F0FF03F6D1521C91
:1004F000D2B2A242EFD370BD704710B590F8211070
:100500000022022905D00421816380F820200120E7
:1005100010BD01680B6823F00E030B6001680B68C7
:1005200023F001030B6090F84030C46B012101FA05
:1005300003F3636080F8211080F82020104610BD7E
:1005400010B590F821100024022903D00421816302
:1005500001243DE001680A6822F00E020A60016889
:100560000A6822F001020A601A4A0168914201D128
:10057000012121E0174A1432914201D110211BE0E0
:10058000144A2832914201D1891515E0114A3C32B2
:10059000914201D189140FE00E4A5032914202D1AA
:1005A0004FF4803108E00B4A6432914202D14FF49B
:1005B000801101E04FF08071064A083A5160012134
:1005C00080F82110002180F82010416B01B188478C
:1005D000204610BD080002402DE9F84FDFF8B89121
:1005E0000024A9F1040B23460F2709F1040AABF1FB
:1005F000040EC9E00125A5402A40AA427DD1674EDC
:10060000D1F804C0ACEB0608B44532D014DCBCF120
:10061000030F3AD009DCBCF1000F2AD0BCF1010F66
:100620001CD0BCF1020F31D11DE0BCF1110F17D06D
:10063000BCF1120F2AD119E0B8F5881F19D006DCD9
:10064000B8F5803F15D0B8F5801F1FD111E0B8F57F
:10065000001F0ED0B8F5041F18D10AE0CB6815E0D2
:10066000CB681B1D12E0CB6808330FE0CB680C335E
:100670000CE08B682BB1012B4FF0080303D04561D0
:1006800004E0042302E0056100E00023FF2A01D812
:10069000064601E000F104064FEA840501D9A5F100
:1006A0002005D6F8008007FA05FC28EA0C0803FAB2
:1006B00005F548EA0508C6F800804D68ED0062D5EA
:1006C000374DAE6946F00106AE61AD6924F0030610
:1006D00005F001050095334D06EB050CDCF80850DC
:1006E000A607360F07FA06F825EA0805DFF8B880EE
:1006F000404503D14FF0000817E044E0DFF8AC803C
:10070000404502D14FF001080FE0DFF8A4804045DA
:1007100002D14FF0020808E0DFF89880404502D18E
:100720004FF0030801E04FF0040808FA06F848EA21
:100730000508CCF808804D68D9F80060ED024D46F8
:1007400001D5164300E096432E604D68DAF800604C
:10075000AD02554601D5164300E096432E604D6824
:10076000DBF80060AD035D4601D5164300E096431B
:100770002E604D68DEF80060ED03754601D5164326
:1007800000E096432E60641C0D682A46E5407FF425
:1007900031AFBDE8F88F00000804014000001110DF
:1007A000001002400000014000080140000C014020
:1007B00000100140001401400AB1016170470904B2
:1007C000FBE7000001488068704700000402002039
:1007D0000248816802781144816070470402002059
:1007E000074810B5016841F010010160032000F0D6
:1007F00075F80F2000F006F800F024F8002010BD76
:100800000020024070B50D4D04464FF47A712878EF
:10081000B1FBF0F00A490968B1FBF0F000F0DCFA36
:1008200048B9102C07D200222146501E00F036F89D
:1008300000206C6070BD012070BD0000040200202B
:10084000100200200C4808B5816941F00101816166
:10085000816901F001010091C16941F08051C161DC
:10086000C06900F0805000900448416821F0E061C8
:1008700041F00071416008BD0010024000000140DD
:10088000002809DB00F01F0201219140400980008F
:1008900000F1E020C0F8001170470000F0B40E4BEA
:1008A0001B680C46C3F30223C3F10705042D00D9CE
:1008B0000425191D072901D2002300E0DB1E0126B3
:1008C00006FA05F1491E214099409E40761E1640C9
:1008D0003143F0BC00F01BBF0CED00E0064900F016
:1008E000070208684FF6FF03184040EA0220034A57
:1008F00010430860704700000CED00E00000FA05AE
:100900002DE9F0470F46050061D0434E306800F0F6
:100910000700B84209D2306820F007003843306041
:10092000306800F00700B84251D128683B4C81077D
:1009300012D5400703D5606840F4E0606060287815
:10094000000703D5606840F4605060606068A96883
:1009500020F0F000084360602878C00728D068685D
:10096000012810D02168022810D0890700292EDA2A
:10097000616821F0030101436160FFF723FF8046B6
:1009800041F288390DE021688903EFE78901EDE73D
:10099000FFF718FFA0EB0801494502D90320BDE885
:1009A000F0876068696800F00C00B0EB810FEFD150
:1009B000306800F00700B8420BD9306820F007001B
:1009C00038433060306800F00700B84201D00120A1
:1009D000E5E72878400705D56068E96820F4E0601D
:1009E000084360602878000706D56068296920F40C
:1009F000605040EAC100606000F038F86168084A61
:100A0000C1F30311515CC8400649086006480068FC
:100A1000FFF7F8FE0020C2E700200240001002406D
:100A2000F6170008100200200802002004480549BB
:100A300000684968044AC1F30221515CC84070470C
:100A40001002002000100240061800080448054962
:100A500000684968044AC1F3C221515CC84070472C
:100A60001002002000100240061800080E4A5168CB
:100A70000E4801F00C03042B11D0082B0FD10C48A9
:100A8000C1F38343C903C05C0AD55168084AC1F366
:100A90004041921E515C054A5043B0FBF1F0704753
:100AA00004494843704700000010024000127A00D9
:100AB000E617000800093D002DE9F84F040070D04A
:100AC0002078C04DC00749D06868C0F38100012874
:100AD00007D06868C0F38100022809D16868C003A4
:100AE00006D52868800339D560680028E7D035E04E
:100AF0006068B0F5803F0BD010B1B0F5A02F11D0D9
:100B0000286820F480302860286820F4802002E0E3
:100B1000286840F480302860606890B1FFF752FE8A
:100B200006460AE0286840F480202860F0E700BF0D
:100B3000FFF748FE801B642873D828688003F7D528
:100B40000CE0FFF73FFE064605E000BFFFF73AFE68
:100B5000801B6428F0D828688003F7D420789A4E48
:100B600080074FF001094FF0000839D5686810F090
:100B70000C0F07D06868C0F38100022809D16868AB
:100B8000C00306D42868800714D52069012808D13D
:100B900010E02069B0B1C6F80090FFF713FE0746D9
:100BA00005E00AE1FFF70EFEC01B0228C4D8286842
:100BB0008007F7D52868616920F0F80040EAC10095
:100BC00028600DE0C6F80080FFF7FCFD074604E052
:100BD000FFF7F8FDC01B022823D828688007F7D448
:100BE000207800072CD57948A169D9B1C0F80090C8
:100BF000FFF7E8FD074604E0FFF7E4FDC01B02280D
:100C00000FD8686A8007F7D571484FF4FA51006829
:100C1000B0FBF1F0009000BF0098411E0091FAD2A5
:100C20000EE080E0C0F80080FFF7CCFD074604E04E
:100C3000FFF7C8FDC01B022875D8686A8007F7D483
:100C40002078400760D5E8690027C00008D4E8692B
:100C500040F08050E861E869012700F08050009082
:100C60005C480168C90513D40168834641F480716A
:100C70000160FFF7A7FD824606E000BFFFF7A2FD77
:100C8000A0EB0A0064284ED8DBF80000C005F5D5BB
:100C9000E06801280AD008B1052813D0286A20F09E
:100CA00001002862286A20F0040002E0286A40F06F
:100CB00001002862E06841F2883B98B1FFF782FDAD
:100CC00082460BE0286A40F004002862EEE700BF8D
:100CD000FFF778FDA0EB0A0159455AD8286A80072A
:100CE000F6D50CE0FFF76EFD824605E0FFF76AFDE2
:100CF000A0EB0A0159454CD8286A8007F6D41FB1E9
:100D0000E86920F08050E861E06988B36968C1F360
:100D10008101022944D00228C6F8608004D0FFF780
:100D200051FD044638E034E0FFF74CFD074604E08F
:100D3000FFF748FDC01B02282BD828688001F7D494
:100D4000206AB0F5803F05D16868A16820F40030C2
:100D500008436860D4E908010843696821F4741104
:100D600008436860C6F86090FFF72CFD044606E073
:100D700025E000BFFFF726FD001B022809D82868E0
:100D80008001F7D51BE000BFFFF71CFD001B022808
:100D900002D90320BDE8F88F28688001F4D40EE062
:100DA0000128F7D06868226A00F48031914204D1AA
:100DB000616A00F47010884201D00120EAE7002047
:100DC000E8E7000000100240000042428004424276
:100DD000100200200070004010B5401EB0F1807F6E
:100DE00001D3012010BD4FF0E02460610F21601796
:100DF00000F08DFC0020A06107202061002010BDC4
:100E000018B5034690F84200202801D0022018BDF2
:100E100061B15AB10120186300205863184600F0F0
:100E200017FC0028F3D1196B012901D0012018BD4E
:100E300019680A684968009119680C3151E8002F57
:100E400042F0100241E80024002CF5D118BD00004A
:100E50002DE9F04100686F4988427CD16E4C6F4D9E
:100E600020782978884277D160784FF0FF380328BE
:100E70005CD1A08840BA4000FFF7AAF90746608815
:100E8000052140BA6870607901EB4000C0B2A870DB
:100E9000FFF79EF9064621460620FFF714FBE1887E
:100EA00088423DD1002069782B1D0CE033F81120D9
:100EB00007EB000C120A3A5413F81120491C8CF865
:100EC0000120C9B2801C6279B0EB420FEEDB2878BA
:100ED000307060787070A08840BA4000B070A97817
:100EE0000320891E04E03A1812F8032C3254401CE7
:100EF0008842F8DBA8783146801EC0B2FFF7E3FADB
:100F0000A9784346314401F8020CA978000A31441B
:100F100001F8010C4048AA783146483800F02DFA13
:100F20003046FFF784F93846FFF781F960781028DA
:100F300064D10820A870FFF74BF90646A088092164
:100F400040BAC0B201EB4007B81EC0B23249FFF749
:100F5000BAFAE11901E05AE050E031F8021C884287
:100F600049D12878307060787070A078B070E078DF
:100F7000F0702079307160797071A8783146801EE8
:100F8000C0B2FFF7A0FAA9784346314401F8020C39
:100F9000A978000A314401F8010C1F48AA783146AB
:100FA000483800F0EAF9B4F807001D4D40BA20B9FE
:100FB000002201212846FFF7FFFBB4F8070040BAE2
:100FC000012804D1012211462846FFF7F5FBB4F8A9
:100FD000070040BA022804D1002202212846FFF768
:100FE000EBFBB4F8070040BA032804D10122022128
:100FF0002846FFF7E1FB3046FFF719F9BDE8F0415D
:1010000005494FF48072A1F14800FFF7F9BEBDE831
:10101000F0810000004400405C020020000000203D
:10102000000C014070470000F8B5016804460868EC
:10103000CA684B6910F00F0F4FF0000559D003F04C
:10104000010602F49077374365D0C10705D0D1057A
:1010500003D5616C41F001016164410705D5D907F1
:1010600003D0616C41F002016164810705D5D907A5
:1010700003D0616C41F004016164010707D502F0FF
:101080002001314303D0616C41F008016164616C5F
:1010900000293AD0800604D5900602D5204600F0FB
:1010A00019FA20684069616CC0F38010090700D408
:1010B00060B3204600F0E7F920684069400621D57A
:1010C0002068143050E8001F21F0400140E8001271
:1010D000002AF5D1E06BA8B16D494163E06BFFF7E1
:1010E0002FFA002811D0E06B416B01B0BDE8F04051
:1010F000084783060FD593060DD52046BDE8F84076
:1011000000F0E8B92046FFF78DFFF8BD2046FFF755
:1011100089FF6564F8BD266B2023012E7CD1C606AD
:101120007AD5D60678D508684868009048694FF0A7
:101130000206400640D5E16B086840680004000CD8
:10114000E8D0A28D8242E5D9E085886920282DD09B
:1011500020680C3050E8001F21F4807140E8001234
:10116000002AF5D12068143050E8001F21F0010159
:1011700040E80012002AF5D12068143050E8001F22
:1011800021F0400140E80012002AF5D184F84230F5
:10119000256320680C3050E8001F21F0100140E862
:1011A0000012002AF5D1E06BFFF7A7F96663A08D66
:1011B000E18D401A81B22AE0A08DE18D401A81B202
:1011C000E08D0028A6D00029A4D022680C3252E875
:1011D000000F20F4907042E80007002FF5D120683E
:1011E000143050E8002F22F0010240E80027002FC1
:1011F000F5D184F84230256320680C3050E8002F88
:1012000022F0100240E80023002BF5D1666320464F
:10121000FFF71EFEF8BDFFE705062BD5150629D5FD
:1012200094F841002128F5D1A068B0F5805F01D184
:101230002069B0B1206A411C2162216800784860B1
:10124000E08C401E0004000CE084E3D12068C168FB
:1012500021F08001C1602068C16841F04001C16097
:10126000D8E7206A0088C0F308004860206A801C24
:101270002062E5E74006CDD55006CBD5CA682046AA
:1012800022F04002CA6084F8413000F0C3F8C1E7A0
:101290007714000870B5040004D094F841000025CC
:1012A00010B106E0012070BD84F84050204600F0E7
:1012B00023F8242084F841002068C16821F40051FB
:1012C000C160204600F068F92068016921F490416E
:1012D00001612068416921F02A0141612068C168EB
:1012E00041F40051C1606564202084F8410084F815
:1012F00042006563002070BD30B585B000240094C5
:101300000194029403940068184988422BD118482C
:10131000C16941F40031C161C16901F40031049136
:10132000816941F0040181618069124D00F004007F
:10133000049004200090022001900320039069464D
:101340002846FFF749F90820CDE9000469462846F8
:101350000294FFF741F9002211462620FFF79EFA7A
:101360002620FFF78DFA05B030BD00000044004094
:10137000001002400008014070472DE9F843044680
:1013800090F841001F4616460D46202802D0022044
:10139000BDE8F8837DB176B100206064212084F837
:1013A0004100FFF70FFAA6848046E684A068B0F5F6
:1013B000805F02D003E00120EAE7206910B12E46E9
:1013C00000250EE000260CE08021204600F05BF9AD
:1013D000A0B9AEB116F8010B21684860E08C401E40
:1013E000E084E08C43464FF0000200970028EBD1E8
:1013F0004FF04001204600F046F930B10320C7E726
:1014000035F8020BC0F30800E6E7202084F841001D
:101410000020BDE77047FEE7FEE7FEE77047704734
:10142000FFF7D6B910B590B028216846FEF726FF21
:1014300014210AA8FEF722FF022000900120049048
:1014400010200024059007946846FFF735FB08B18B
:1014500072B6FEE70F20CDE90A040C940D9400212A
:101460000AA80E94FFF74CFA002801D072B6FEE7E6
:1014700010B010BD704710B5406A0021C185C1840D
:10148000FFF7D0FD10BD01680C3151E8002F22F4A8
:10149000907241E80023002BF5D10168143151E826
:1014A000002F22F0010241E80023002BF5D1016B4F
:1014B000012909D101680C3151E8002F22F01002F6
:1014C00041E80023002BF5D1202180F842100021B3
:1014D0000163704708B590F84210222901D002201C
:1014E00008BD82684FF480539A4201D1016921B14D
:1014F000816A9A421BD04AB10AE00268816A526846
:10150000C2F308020A80816A891C08E0026972B18C
:101510000268526802F07F020A70816A491C816287
:10152000C18D491E0904090CC18503D01BE0026866
:101530005268F1E70168CA6822F02002CA600168B7
:10154000CA6822F48072CA6001684A6922F0010206
:101550004A61202180F8421000214163026B012A78
:1015600003D0FFF709FF002008BD016301680C31BB
:1015700051E8002F22F0100241E80023002BF5D1A2
:1015800001680A68D20602D50A6849680091818D0F
:10159000FFF75EFCE7E7000070B5044600680169EC
:1015A000E26821F44051114301612169A0680843B8
:1015B000616908432168CA6841F20C639A43024397
:1015C000CA6020684169A26921F4407111434161F8
:1015D0001E492068884202D1FFF738FA01E0FFF780
:1015E00025FA00EBC00101EB001260686421800065
:1015F000B2FBF0F3B3FBF1F36FF018067343B2FBE9
:10160000F0F5B2FBF0F605EB8305322303EB05158D
:10161000B5FBF1F5B6FBF1F605F0F00505EB0615A7
:10162000B2FBF0F6B2FBF0F0B0FBF1F06FF0180295
:10163000504306EB800003EB0010B0FBF1F0216893
:1016400000F00F002844886070BD000000380140A1
:1016500081628285C28500214164222180F8421086
:10166000016921B10168CA6842F48072CA600168E8
:101670004A6942F001024A610068C16841F02001F4
:10168000C160002070472DE9F041984617460E468C
:101690000446069D27E0681C25D02DB1FFF792F87F
:1016A000A0EB0800A8421ED920680C3050E8001FAB
:1016B00021F4D07140E80012002AF5D120681430DE
:1016C00050E8001F21F0010140E80012002AF5D186
:1016D000202084F8410084F84200002084F8400073
:1016E0000320BDE8F0812068006836EA000004D0DD
:1016F0000020B842CFD00020F3E70120F9E7000036
:101700000148FFF791BC000014020020FEE7090722
:10171000090E002804DB00F1E02080F80014704777
:1017200000F00F0000F1E02080F8141D7047000069
:1017300086B0FFF755F8FFF775FE002425480094A2
:10174000019402940394816941F0040181618169EB
:1017500001F004010491816941F00801816180690F
:101760001D4D00F008000490002203212846FFF7D9
:1017700023F8032000900120CDE90104022003900A
:1017800069462846FEF728FF1549144808604FF4BB
:101790001650C1E901040C20CC60C1E904408C6101
:1017A0000846CC61FFF776FD08B172B6FEE701226C
:1017B00011462846FFF700F8012202212846FEF7CD
:1017C000FBFF07494FF4807248310548FFF718FBCB
:1017D000FEE7000000100240000C01400044004001
:1017E00014020020010202030405060708090A0B7F
:1017F0000C0D0E0F10100000000000000000010290
:1018000003040607080900000000010203040000A9
:101810003018000800000020140200002801000811
:10182000441A000814020020AC070000440100081C
:10183000050000000000C1C081C1400101C3C00318
:10184000800241C201C6C006800741C70005C1C56C
:1018500081C4400401CCC00C800D41CD000FC1CF2C
:1018600081CE400E000AC1CA81CB400B01C9C0091C
:10187000800841C801D8C018801941D9001BC1DBBC
:1018800081DA401A001EC1DE81DF401F01DDC01D6C
:10189000801C41DC0014C1D481D5401501D7C0178C
:1018A000801641D601D2C012801341D30011C1D19C
:1018B00081D0401001F0C030803141F10033C1F3DC
:1018C00081F240320036C1F681F7403701F5C0356C
:1018D000803441F4003CC1FC81FD403D01FFC03F2C
:1018E000803E41FE01FAC03A803B41FB0039C1F91C
:1018F00081F840380028C1E881E9402901EBC02B7C
:10190000802A41EA01EEC02E802F41EF002DC1ED6B
:1019100081EC402C01E4C024802541E50027C1E78B
:1019200081E640260022C1E281E3402301E1C0219B
:10193000802041E001A0C060806141A10063C1A39B
:1019400081A240620066C1A681A7406701A5C0656B
:10195000806441A4006CC1AC81AD406D01AFC06F2B
:10196000806E41AE01AAC06A806B41AB0069C1A91B
:1019700081A840680078C1B881B9407901BBC07BBB
:10198000807A41BA01BEC07E807F41BF007DC1BD6B
:1019900081BC407C01B4C074807541B50077C1B78B
:1019A00081B640760072C1B281B3407301B1C0719B
:1019B000807041B00050C190819140510193C0535B
:1019C000805241920196C056805741970055C1956B
:1019D00081944054019CC05C805D419D005FC19F2B
:1019E000819E405E005AC19A819B405B0199C0591B
:1019F000805841980188C04880494189004BC18B7B
:101A0000818A404A004EC18E818F404F018DC04D6A
:101A1000804C418C0044C184818540450187C0478A
:101A2000804641860182C042804341830041C1819A
:101A30008180404001000000100000000000000014
:041A40000024F4008A
:04000005080000ED02
:00000001FF
