:020000040800F2
:1000000018070020D5010008EB1800088315000828
:10001000E918000803060008051C0008000000009D
:10002000000000000000000000000000EF180008C1
:100030006506000800000000ED18000879190008A6
:10004000EF010008EF010008EF010008EF010008D0
:10005000EF010008EF010008EF010008EF010008C0
:10006000EF010008EF010008EF010008EF010008B0
:10007000EF010008EF010008EF010008EF010008A0
:10008000EF010008EF010008EF010008EF01000890
:10009000EF010008EF010008EF010008EF01000880
:1000A000EF010008D1190008EF010008EF01000876
:1000B000EF010008EF010008EF010008EF01000860
:1000C000EF010008EF010008EF010008EF01000850
:1000D000EF010008EF010008EF010008EF01000840
:1000E000EF010008EF010008EF010008EF01000830
:1000F000EF010008EF010008EF010008EF01000820
:10010000EF010008EF010008EF010008EF0100080F
:10011000EF010008EF010008EF010008EF010008FF
:10012000EF010008EF010008EF010008EF010008EF
:1001300000F002F800F03FF80AA090E8000C8244BA
:100140008344AAF10107DA4501D100F034F8AFF297
:10015000090EBAE80F0013F0010F18BFFB1A43F0A5
:1001600001031847B41C0000D41C0000103A24BF3F
:1001700078C878C1FAD8520724BF30C830C144BF0C
:1001800004680C607047000000230024002500264E
:10019000103A28BF78C1FBD8520728BF30C148BFEA
:1001A0000B607047752900F06980002070471FB50B
:1001B0001FBD10B510BD00F0EBF91146FFF7F7FFBA
:1001C00001F050FD00F009FA03B4FFF7F2FF03BCA1
:1001D00000F010FA0948804709480047FEE7FEE7AB
:1001E000FEE7FEE7FEE7FEE7FEE7FEE7FEE7FEE7E7
:1001F00004480549054A064B70470000CD19000820
:100200003101000818010020180700201803002001
:10021000180300200FB4044910B503AA029800F097
:1002200089F910BC5DF814FB1000002070B504467D
:1002300085690068C10601D5302600E02026C00788
:1002400007D070BDD4E9012130469047206A401C98
:1002500020626D1EF6D570BD70B5044685690078C4
:10026000C00707D170BDD4E9012120209047206A42
:10027000401C20626D1EF6D570BD00002DE9F041D6
:100280000646002410687529314616A510D0AFF334
:100290000080002802DA404213A507E031688A078F
:1002A00001D512A502E0490704D511A5012401E0FA
:1002B000AFF3008000210A2206F1240709E0B0FB19
:1002C000F2FCB0FBF2F302FB1C003030785418460D
:1002D000491C0028F3D123462A463046BDE8F041A8
:1002E00000F0CEB8000000002D0000002B00000040
:1002F000200000002DE9F05F894604464FF0000A17
:10030000DFF824B1FB44C0F820A02046E16888470C
:1003100000287DD0252806D0D4E901219047206A05
:10032000401C2062F1E700255F462046E1688847CF
:100330002028064607DB312E05D2B81910F8200C0C
:1003400008B10543F1E7A80701D525F00405C4F875
:100350001CA00027C4F818A02A2E09D0304601F0AE
:1003600062FC38B304EB8708303EC8F8186019E027
:1003700059F8041B204604EB87029161E168884725
:10038000012F064618D1E069002820DA25F0200563
:100390001DE0D8F8180000EB800006EB4000303874
:1003A000C8F818002046E1688847064601F03BFC83
:1003B0000028EED1012F0AD02E2E08D12046E16868
:1003C00088477F1C0646022F45F02005C4DBA06944
:1003D000002803DA404245F00105A061E80701D09A
:1003E00025F01005A6B1A6F14100192802D8203643
:1003F00045F400654A463146204625604D46FFF7E4
:10040000D1FE60B1012807D0ED1D25F0070000E006
:1004100007E000F1080978E705F1040975E73046BF
:100420007AE7206ABDE8F09FFE1A00004FF0000254
:1004300000B5134694469646203922BFA0E80C50DA
:10044000A0E80C50B1F12001BFF4F7AF090728BFB5
:10045000A0E80C5048BF0CC05DF804EB890028BF31
:1004600040F8042B08BF704748BF20F8022B11F05A
:10047000804F18BF00F8012B7047704770477047D6
:100480002DE9F0470D4699469246044600F12408AE
:100490000168880604D5E06921F01001216000E0C0
:1004A0000120A84201DD471B00E00027A1697A195D
:1004B00002EB0900081AA0612078C00602D4204689
:1004C000FFF7B4FE002608E0D4E901211AF806007F
:1004D0009047206A401C761C20624E45F4DB207851
:1004E000C0060AD52046FFF7A1FE06E0D4E90121A7
:1004F00030209047206A401C2062381EA7F1010777
:10050000F4DC07E0D4E9012118F805009047206ADF
:10051000401C2062281EA5F10105F3DC2046FFF7F0
:100520009BFE2078000602D50220BDE8F08701205E
:10053000FBE70000074B70B50D467B4400F011F857
:100540000446284600F020F810B14FF0FF3070BD8F
:10055000204670BDF716000001694A1C0261087848
:10056000704700B58FB0CDE90131002105910549F3
:100570007944CDE9031011466846FFF7BBFE0FB082
:1005800000BD0000E5FFFFFF007B00F0800070472A
:10059000754600F02BF8AE4605006946534620F03C
:1005A0000700854618B020B5FFF722FEBDE82040C1
:1005B0004FF000064FF000074FF000084FF0000B1F
:1005C00021F00701AC46ACE8C009ACE8C009ACE8D2
:1005D000C009ACE8C0098D46704710B50446AFF3BA
:1005E00000802046BDE81040FFF7EEBD0048704790
:1005F000B400002001491820ABBEFEE7260002002F
:100600007047FEE770B5154E0025012208213046DF
:1006100000F03DF9124C00220221204600F037F98B
:1006200001220221204600F032F900240122082193
:10063000304600F02CF91021304600F023F940EA52
:100640004500C5B200220821304600F020F9641CA4
:10065000E4B2082CEAD3284670BD0000000C01402B
:10066000001801407047000070B5044600F014F90E
:100670000546601C02D004480078044400F00CF9E0
:10068000401BA042FAD370BD140000202DE9F84FA2
:10069000DFF8C8910024A9F1040B23460F2709F1C4
:1006A000040AABF1040ED1E00125A54006EA0502DB
:1006B000AA4276D1DFF8A8C14E68A6EB0C086645C1
:1006C0002BD00DDC032E34D005DC36B3012E19D02F
:1006D000022E2FD11BE0112E16D0122E2AD119E096
:1006E000B8F5881F19D006DCB8F5803F15D0B8F5ED
:1006F000801F1FD111E0B8F5001F0ED0B8F5041F00
:1007000018D10AE0CB6815E0CB681B1D12E0CB685E
:1007100008330FE0CB680C330CE08B682BB1012B56
:100720004FF0080303D0456104E0042302E00561B3
:1007300000E00023FF2A01D8064601E000F104068C
:100740004FEA840501D9A5F12005D6F8008007FA03
:1007500005FC28EA0C0803FA05F548EA0508C6F87E
:1007600000804D68ED0070D53E4DAE6946F0010643
:10077000AE61AD6924F0030605F0010500953A4D20
:1007800006EB050CDCF80850A607360F07FA06F84A
:1007900025EA0805DFF8D480404503D14FF0000872
:1007A00025E052E0DFF8C880404502D14FF0010853
:1007B0001DE0DFF8C080404502D14FF0020816E08E
:1007C000DFF8B480404502D14FF003080FE0DFF8B6
:1007D000AC80404502D14FF0040808E0DFF8A0806B
:1007E000404502D14FF0050801E04FF0060808FA35
:1007F00006F848EA0508CCF808804D68D9F800608A
:10080000ED024D4601D5164300E096432E604D683B
:10081000DAF80060AD02554601D5164300E0964374
:100820002E604D68DBF80060AD035D4601D51643D0
:1008300000E096432E604D68DEF80060ED037546DB
:1008400001D5164300E096432E60641C0A681646E4
:10085000E2407FF429AFBDE8F88F000008040140B2
:10086000000011100010024000000140000801408B
:10087000000C01400010014000140140001801402C
:10088000001C01408068084000D0012070470AB178
:10089000016170470904FBE7014880687047000068
:1008A000140000200248816802781144816070477A
:1008B00014000020074810B5016841F010010160E4
:1008C000032000F075F80F2000F006F800F024F87F
:1008D000002010BD0020024070B50D4D04464FF4BD
:1008E0007A712878B1FBF0F00A490968B1FBF0F0A1
:1008F00000F0DCFA48B9102C07D200222146501E25
:1009000000F036F800206C6070BD012070BD000062
:1009100014000020200000200C4808B5816941F037
:1009200001018161816901F001010091C16941F01A
:100930008051C161C06900F0805000900448416856
:1009400021F0E06141F00071416008BD00100240FB
:1009500000000140002809DB00F01F020121914046
:100960004009800000F1E020C0F80011704700004D
:10097000F0B40E4B1B680C46C3F30223C3F107050A
:10098000042D00D90425191D072901D2002300E0F8
:10099000DB1E012606FA05F1491E214099409E40C2
:1009A000761E16403143F0BC01F02DB90CED00E08D
:1009B000064900F0070208684FF6FF03184040EAB6
:1009C0000220034A10430860704700000CED00E06D
:1009D0000000FA052DE9F0470F46050061D0434EAF
:1009E000306800F00700B84209D2306820F00700F4
:1009F00038433060306800F00700B84251D12868B1
:100A00003B4C810712D5400703D5606840F4E06095
:100A100060602878000703D5606840F4605060602B
:100A20006068A96820F0F000084360602878C0077B
:100A300028D06868012810D02168022810D08907C2
:100A400000292EDA616821F0030101436160FFF79C
:100A500023FF804641F288390DE021688903EFE7E2
:100A60008901EDE7FFF718FFA0EB0801494502D91E
:100A70000320BDE8F0876068696800F00C00B0EB07
:100A8000810FEFD1306800F00700B8420BD9306811
:100A900020F0070038433060306800F00700B842AB
:100AA00001D00120E5E72878400705D56068E968AE
:100AB00020F4E060084360602878000706D560688D
:100AC000296920F4605040EAC100606000F038F805
:100AD0006168084AC1F30311515CC84006490860C7
:100AE00006480068FFF7F8FE0020C2E70020024039
:100AF00000100240EE1D0008200000201800002019
:100B00000448054900684968044AC1F30221515C60
:100B1000C84070472000002000100240FE1D000861
:100B20000448054900684968044AC1F3C221515C80
:100B3000C84070472000002000100240FE1D000841
:100B40000E4A51680E4801F00C03042B11D0082BFB
:100B50000FD10C48C1F38343C903C05C0AD5516867
:100B6000084AC1F34041921E515C054A5043B0FB14
:100B7000F1F07047044948437047000000100240FC
:100B800000127A00DE1D000800093D002DE9F84F33
:100B9000040070D02078C04DC00749D06868C0F309
:100BA0008100012807D06868C0F38100022809D1BC
:100BB0006868C00306D52868800339D560680028B6
:100BC000E7D035E06068B0F5803F0BD010B1B0F5EC
:100BD000A02F11D0286820F480302860286820F4E5
:100BE000802002E0286840F480302860606890B17E
:100BF000FFF752FE06460AE0286840F4802028608D
:100C0000F0E700BFFFF748FE801B642873D8286810
:100C10008003F7D50CE0FFF73FFE064605E000BF76
:100C2000FFF73AFE801B6428F0D828688003F7D4C9
:100C300020789A4E80074FF001094FF0000839D50F
:100C4000686810F00C0F07D06868C0F381000228B4
:100C500009D16868C00306D42868800714D52069C4
:100C6000012808D110E02069B0B1C6F80090FFF764
:100C700013FE074605E00AE1FFF70EFEC01B02283F
:100C8000C4D828688007F7D52868616920F0F80083
:100C900040EAC10028600DE0C6F80080FFF7FCFDC7
:100CA000074604E0FFF7F8FDC01B022823D8286898
:100CB0008007F7D4207800072CD57948A169D9B1ED
:100CC000C0F80090FFF7E8FD074604E0FFF7E4FDF9
:100CD000C01B02280FD8686A8007F7D571484FF407
:100CE000FA510068B0FBF1F0009000BF0098411E7F
:100CF0000091FAD20EE080E0C0F80080FFF7CCFD52
:100D0000074604E0FFF7C8FDC01B022875D8686AD3
:100D10008007F7D42078400760D5E8690027C00035
:100D200008D4E86940F08050E861E869012700F0E4
:100D3000805000905C480168C90513D4016883465F
:100D400041F480710160FFF7A7FD824606E000BF15
:100D5000FFF7A2FDA0EB0A0064284ED8DBF80000E4
:100D6000C005F5D5E06801280AD008B1052813D0E0
:100D7000286A20F001002862286A20F0040002E0BE
:100D8000286A40F001002862E06841F2883B98B18F
:100D9000FFF782FD82460BE0286A40F004002862DB
:100DA000EEE700BFFFF778FDA0EB0A0159455AD8DE
:100DB000286A8007F6D50CE0FFF76EFD824605E055
:100DC000FFF76AFDA0EB0A0159454CD8286A800755
:100DD000F6D41FB1E86920F08050E861E06988B37B
:100DE0006968C1F38101022944D00228C6F86080F5
:100DF00004D0FFF751FD044638E034E0FFF74CFD26
:100E0000074604E0FFF748FDC01B02282BD82868DE
:100E10008001F7D4206AB0F5803F05D16868A168E9
:100E200020F4003008436860D4E908010843696889
:100E300021F4741108436860C6F86090FFF72CFD38
:100E4000044606E025E000BFFFF726FD001B022850
:100E500009D828688001F7D51BE000BFFFF71CFD0B
:100E6000001B022802D90320BDE8F88F2868800102
:100E7000F4D40EE00128F7D06868226A00F48031CB
:100E8000914204D1616A00F47010884201D00120BF
:100E9000EAE70020E8E700000010024000004242BC
:100EA00080044242200000200070004010B5401E27
:100EB000B0F1807F01D3012010BD4FF0E0246061CC
:100EC0000F21601700F09FFE0020A0610720206125
:100ED000002010BD7047704770B590F83C20012A83
:100EE0002CD0012480F83C40022280F83D20036889
:100EF0005A689D6822F070060A6832435A60104BA7
:100F000002689A420ED00F4B9A420BD0B2F1804F3A
:100F100008D00D4B9A4205D00C4B9A4202D00C4B94
:100F20009A4204D1496825F080031943916080F802
:100F30003D40002180F83C10084670BD022070BD85
:100F4000002C014000340140000400400008004033
:100F5000000C004010B5040003D094F83D0010B11F
:100F600007E0012010BD002084F83C00204600F07E
:100F70001FF8022084F83D00211D206800F02EFD9E
:100F8000012084F8460084F83E0084F83F0084F88D
:100F9000400084F8410084F8420084F8430084F85B
:100FA000440084F8450084F83D00002010BD000096
:100FB00008B500680B49884212D10B48816941F499
:100FC000006181618069002200F400600090114698
:100FD0001920FFF7CDFCBDE808401920FFF7BABC87
:100FE00008BD0000002C01400010024090F83D10A8
:100FF000012901D001207047022180F83D100168CD
:10100000CA6842F00102CA6000680E4988420ED0E8
:101010000D4988420BD0B0F1804F08D00B4988426F
:1010200005D00B49884202D00A49884204D1816820
:1010300001F00701062903D0016841F001010160B8
:1010400000207047002C01400034014000040040A3
:1010500000080040000C004070B5044690F83C00C9
:101060000025012817D0012684F83C60022084F86E
:101070003D002068826822F0770222F47F4282607D
:101080000868502838D00DDC20284FD005DC90B3FC
:10109000102811D14AE0022070BD302846D04028E7
:1010A0000AD13BE060282FD070280DD0B0F5805FCA
:1010B00003D0B0F5005F12D0012584F83D60002018
:1010C00084F83C00284670BDCB68D1E90121206836
:1010D00000F0CAFC2068816841F0770109E0CB6824
:1010E000D1E90121206800F0BFFC2068816841F44B
:1010F00080418160E1E719E0CA684968206800F032
:10110000C5FC5021206806E0CA684968206800F0E4
:10111000CEFC6021206800F0B1FCCEE7CA684968C7
:10112000206800F0B3FC40212068F4E72268014603
:101130001046F0E7704770B50446006801694FF04B
:101140000005C943890715D4C168C943890711D46B
:10115000E91E016101202077206880698007204610
:1011600002D0FFF7E7FF04E000F098F8204600F017
:1011700096F8257720680169C943490717D4C168E3
:10118000C943490713D46FF004010161022020779D
:101190002068806910F4407F204602D0FFF7CAFF24
:1011A00004E000F07BF8204600F079F8257720680D
:1011B0000169C943090716D4C168C943090712D494
:1011C0006FF008010161042020772068C069800762
:1011D000204602D0FFF7AEFF04E000F05FF82046A3
:1011E00000F05DF8257720680169C943C90617D466
:1011F000C168C943C90613D46FF01001016108200A
:1012000020772068C06910F4407F204602D0FFF7A5
:1012100091FF04E000F042F8204600F040F8257706
:1012200020680169C943C90708D1C168C943C90712
:1012300004D1891E0161204600F032F8206801695E
:10124000C943090609D4C168C943090605D46FF02A
:10125000800101612046FFF73DFE20680169C94316
:10126000490609D4C168C943490605D46FF0400155
:101270000161204600F0CCF820680169C943890665
:101280000BD4C168C943890607D46FF020010161FE
:101290002046BDE87040FFF71EBE70BD7047704726
:1012A00070B55949884270D1FFF7ACF9574C60814D
:1012B00000F01EFB00F030FB00F024FB00F044FBCC
:1012C000A0790025012849D0A08940B1012811D07A
:1012D000022817D0032820D0042829D034E0082081
:1012E00000F040FA0A2000F001FA802000F03AFAFB
:1012F000002027E0802000F035FA0A2000F0F6F9FF
:10130000402006E0402000F02DFA0A2000F0EEF91F
:10131000202000F027FA0E2014E0202000F022FA0E
:101320000A2000F0E3F9102000F01CFA0D2009E07B
:10133000102000F017FA0A2000F0D8F9082000F079
:1013400011FA0C2000F0D2F9A089042802D2401C26
:10135000A08100E0A581A079012851D160780A26FA
:1013600040B1012812D002281DD0032826D004281D
:101370002FD040E0082000F0F5F90A2000F0B6F97F
:10138000802000F0EFF920792FE039E0802000F094
:10139000E9F90A2000F0AAF9402000F0E3F92079E9
:1013A000B0FBF6F025E0402000F0DCF90A2000F068
:1013B0009DF9202000F0D6F90B201AE0202000F043
:1013C000D1F90A2000F092F9102000F0CBF9E07872
:1013D0000BE0102000F0C6F90A2000F087F9082081
:1013E00000F0C0F9E078B0FBF6F0B0FBF6F106FBD8
:1013F000110000F07BF96078042802D2401C607074
:1014000070BD657070BD0000240000200000002049
:10141000704770B5040004D094F84100002510B165
:1014200006E0012070BD84F84050204600F024F80A
:10143000242084F841002068C16821F40051C16073
:10144000204600F047FB2068016921F490410161CA
:101450002068416921F02A0141612068C16841F496
:101460000051C1606564202084F8410084F8420086
:101470006563002070BD000030B585B00024009485
:1014800001940294039400681449884224D11448BA
:10149000816941F480418161816901F48041049155
:1014A000816941F00401816180690E4D00F0040002
:1014B00004904FF4007000900220019003200390EC
:1014C00069462846FFF7E2F82815CDE90004694689
:1014D00028460294FFF7DAF805B030BD0038014025
:1014E00000100240000801402DE9F843044690F83E
:1014F00041001F4616460D46202802D00220BDE8B6
:10150000F8837DB176B100206064212084F8410029
:10151000FFF7C2F9A6848046E684A068B0F5805F34
:1015200002D003E00120EAE7206910B12E46002531
:101530000EE000260CE08021204600F027FBA0B939
:10154000AEB116F8010B21684860E08C401EE084C3
:10155000E08C43464FF0000200970028EBD14FF09B
:101560004001204600F012FB30B10320C7E735F8F8
:10157000020BC0F30800E6E7202084F841000020B9
:10158000BDE7FEE700EB811010B58030C4B2002249
:1015900080210448FFF77BF92046BDE8104000F0A9
:1015A0005DB8000000140140FEB5194D0122102164
:1015B0002846FFF76CF96420FFF756F800228021D7
:1015C0002846FFF764F9002240212846FFF75FF91B
:1015D000032000F051F80520FFF746F80DA2002483
:1015E00007CA8DE807006E46305D00F045F801201F
:1015F000FFF73AF8641CE4B20B2CF5D30F2000F08F
:101600002DF8012280212846FFF741F9FEBD000098
:101610000014014003030202080008000100060054
:1016200010B5002280210548FFF731F90C2000F0A9
:1016300015F8BDE810400120FFF716B8001401406E
:1016400010B50446012280210348FFF720F9204607
:10165000BDE8104000F002B80014014010B5044687
:10166000000900F009F8204600F006F8BDE8104037
:101670000120FEF7F9BF000070B5134D04460122AA
:1016800020212846FFF703F904F001020121284632
:10169000FFF7FDF804F0020202212846FFF7F7F8F1
:1016A00004F0040204212846FFF7F1F804F00802D0
:1016B00008212846FFF7EBF82846BDE870400022D5
:1016C0002021FFF7E4B800000014014010B500220B
:1016D00080210548FFF7DBF80120FFF7BFFFBDE8D9
:1016E00010400120FEF7C0BF001401402DE9FF416A
:1016F00016A306460FCB8DE80F000724174DE846CA
:10170000012700BF18F8062007FA04F00240202144
:101710002846FFF7BCF8012208212846FFF7B7F852
:10172000002208212846FFF7B2F8641E64B2002C9C
:10173000E8DA0B4C012211462046FFF7A8F80022F8
:1017400001212046FFF7A3F8BDE8FF81AFA06EEAB4
:10175000E1CBCFA2EFEB0040E54F0D00000C0140C4
:10176000001801402DE9F04107240D4F06460125E0
:1017700005FA04F2324020213846FFF788F80122AA
:1017800008213846FFF783F8002208213846FFF782
:101790007EF8641E64B2002CEADABDE8F081000035
:1017A000000C01402DE9F04385B00024304800943E
:1017B000019402940394816941F04001816181693F
:1017C00001F040010491816941F004018161816966
:1017D00001F004010491816941F020018161816976
:1017E00001F020010491816941F008018161806963
:1017F000204F00F008000490002207213846FFF730
:1018000046F8DFF874800022FF214046FFF73FF8DA
:10181000DFF86890002228214846FFF738F80720B3
:1018200001250226CDE90005CDE902466946384684
:10183000FEF72CFFFF20CDE90005CDE90246694601
:101840004046FEF723FF2820CDE90005CDE90246FA
:1018500069464846FEF71AFF1020CDE900046946A4
:1018600048460294FEF712FF05B0BDE8F083000081
:10187000001002400018014000140140000C01401B
:1018800010B586B000241748009401940294039484
:10189000049413490594C0E9001441F26F71C0E942
:1018A0000241046144618461FFF754FB08B172B6E0
:1018B000FEE74FF48050009069460A48FFF7CCFBE2
:1018C00008B172B6FEE7049404A906480594FFF730
:1018D00003FB002801D072B6FEE706B010BD000081
:1018E000002C014024000020FEE7FEE7704770470F
:1018F00003484189E02901D101214171704700006D
:101900000000002003484189C12901D101218171D2
:1019100070470000000000200A4908464A89C07943
:10192000A12A06D001280BD0032801D10020C871BC
:10193000704718B10228FBD10320F8E70120F6E731
:101940000220F4E7000000200A4908464A89007A8C
:10195000612A06D001280BD0042801D1002008728A
:10196000704718B10328FBD10420F8E70120F6E7FF
:101970000220F4E700000020FEF794BF10B590B0FD
:1019800028216846FEF752FD14210AA8FEF74EFDF5
:10199000022000900120049010200024059007945C
:1019A0006846FFF7F3F808B172B6FEE70F20CDE9FD
:1019B0000A040C940D9400210AA80E94FFF70AF86B
:1019C000002801D072B6FEE710B010BD70470000CD
:1019D0000148FFF7B0BB000024000020F0B502680A
:1019E0001C4B1D4D1D4E1E4F1E4C4FF0804C9842FF
:1019F00009D0A04207D0604505D0A84203D0B0422C
:101A000001D0B84204D122F0700E4A6842EA0E02B8
:101A1000984209D0A04207D0604505D0A84203D023
:101A2000B04201D0B84203D122F44075CA682A43BB
:101A30004D6922F080022A4302608A68C2620A6805
:101A40008262984201D0A04201D10969016301215B
:101A50004161F0BD002C014000040040000800403E
:101A6000000C00400034014010B5846842EA0322B3
:101A700024F47F440A432243826010BD826822F02E
:101A800070020A4342F007018160704710B5036A93
:101A9000046A24F001040462846924F0F00444EA36
:101AA000021423F00A020A438461026210BD10B5D9
:101AB000036A046A24F010040462846923F0A0031A
:101AC00024F4704444EA023243EA01118261016263
:101AD00010BD000070B5044600680169E26821F499
:101AE0004051114301612169A068084361690843BD
:101AF0002168CA6841F20C639A430243CA602068B5
:101B00004169A26921F44071114341611E49206875
:101B1000884202D1FFF704F801E0FEF7F1FF00EB85
:101B2000C00101EB0012606864218000B2FBF0F399
:101B3000B3FBF1F36FF018067343B2FBF0F5B2FBA1
:101B4000F0F605EB8305322303EB0515B5FBF1F544
:101B5000B6FBF1F605F0F00505EB0615B2FBF0F665
:101B6000B2FBF0F0B0FBF1F06FF01802504306EB5F
:101B7000800003EB0010B0FBF1F0216800F00F00D3
:101B80002844886070BD0000003801402DE9F04114
:101B9000984617460E460446069D27E0681C25D049
:101BA0002DB1FEF779FEA0EB0800A8421ED92068EF
:101BB0000C3050E8001F21F4D07140E80012002AD8
:101BC000F5D12068143050E8001F21F0010140E8F1
:101BD0000012002AF5D1202084F8410084F8420048
:101BE000002084F840000320BDE8F08120680068F0
:101BF00036EA000004D00020B842CFD00020F3E73E
:101C00000120F9E7FEE70907090E002804DB00F1CF
:101C1000E02080F80014704700F00F0000F1E02091
:101C200080F8141D704730380A2801D2012070470F
:101C30000020704713B50948007810B1012807D07B
:101C40000AE06423012269460548FFF74DFC03E0E2
:101C50000098C0B2FFF7F4FC00981CBD0000002003
:101C60006C000020FEF726FEFFF788FEFFF79AFDC6
:101C700046484549002501604FF41651C0E9011559
:101C80000C21C560C0E904518561C561FFF7C1FB46
:101C900008B172B6FEE7FFF7F3FD3D4C00220121CB
:101CA0002046FEF7F4FD002204212046FEF7EFFD5A
:101CB000002208213748FEF7EAFD012202212046D2
:101CC000FEF7E5FD012211462046FEF7E0FD002269
:101CD00001212046FEF7DBFDFFF766FC2E4C0126B6
:101CE000002126700846FFF74DFC2CA0FEF792FA63
:101CF00001210020FFF746FC2DA0FEF78BFA2348B8
:101D00004838FFF773F9207A012801D0022809D159
:101D100025702379E278A17828A0FEF77BFA267057
:101D20000320207260790128E9D1FFF7CFFCFFF78B
:101D300077FC00210846FFF725FC26702379E2781E
:101D4000A17822A0FEF766FA4FF47A70FEF78CFCB9
:101D5000E0790128D3D00228D1D02079401CC0B22C
:101D600020713C28CBD1E078401CC0B2E0702571D6
:101D70003C28C4D1A078401CC0B2A070E5701828DF
:101D8000BDD1A570BBE70000003801406C00002009
:101D900000180140000C0140000000205068756EE2
:101DA0006720486965752043756F6E670000000005
:101DB0003231313436353430000000002530327590
:101DC0003A253032753A253032750D00253032759E
:101DD0003A253032753A253032750000010202038F
:101DE0000405060708090A0B0C0D0E0F1010000061
:101DF00000000000000001020304060708090000BB
:101E000000000102030404000008000000000000BC
:101E10000002000100001000381E00080000002031
:101E2000240000006C0100085C1E00082400002053
:101E3000F4060000880100080000173B370000008E
:101E40000000000000000000000000000100000091
:0C1E500010000000000000000024F4005E
:0400000508000131BD
:00000001FF
